:020000040800F2
:10000000B811002001010008611300088D120008DA
:100010005D13000891010008C118000800000000ED
:10002000000000000000000000000000C1130008F4
:10003000950100080000000091130008FD1500085C
:100040001B0100081B0100081B0100081B01000820
:100050001B0100081B0100081B0100081B01000810
:100060001B0100081B0100081B0100081B01000800
:100070001B0100081B0100081B0100081B010008F0
:100080001B0100081B0100081B0100081B010008E0
:100090001B0100081B0100081B0100081B010008D0
:1000A0001B0100081B0100081B0100081B010008C0
:1000B0001B0100081B010008000000001B010008D4
:1000C0001B01000800000000000000001B010008E8
:1000D00000000000891800081B0100080000000053
:1000E0001B0100081B0100081B010008DFF80CD0F1
:1000F00000F03CF800480047C11A0008B811002081
:100100000648804706480047FEE7FEE7FEE7FEE7B1
:10011000FEE7FEE7FEE7FEE7FEE7FEE765160008FE
:10012000ED00000840EA01039B0703D009E008C97D
:10013000121F08C0042AFAD203E011F8013B00F8AC
:10014000013B521EF9D27047D2B201E000F8012BF8
:10015000491EFBD270470022F6E710B513460A4647
:1001600004461946FFF7F0FF204610BD064C074D28
:1001700006E0E06840F0010394E807009847103477
:10018000AC42F6D3FFF7B6FF341C0008541C00083D
:10019000FEE70000704700002DE9F04385B0DDE97F
:1001A0000C981C4615460E46074601F087FC387031
:1001B0000020A7F80100381D4FF47F71FFF7CBFF37
:1001C000012087F80004384600F030F841F255412C
:1001D00041F2C532C0F60001C0F6000207F58160A9
:1001E000CDE90092029131462A4623460497CDF884
:1001F0000C8001F03FF905B0BDE8F08380B584B014
:1002000094468DF80F1000F581604FF0000E0093BA
:100210000DF10F0101226346CDF804E001F08CFBE3
:10022000002818BF012004B080BD0000002180F824
:1002300000147047EFF3108072B600BFFEE70000B5
:1002400040F68051C2F200010978002904BF002065
:10025000704740F60052C0F3C621C2F20002515C62
:10026000C0F3022021FA00F000F001007047000006
:1002700070B540F68055C2F2000500BFAE6900F0CF
:10028000B1F9044601F018FBB042F7D1844238BFFF
:1002900000F0FEFF204670BD2DE9F04182B004461B
:1002A00000294FF0000062D01546802A5FD8204612
:1002B0000E46FFF7C5FFF8B1FFF7DAFF2746EFF369
:1002C0000581C0F20807002908BFA7B28046BDB16A
:1002D000082D1AD80020CDE90000684631462A468C
:1002E000FFF720FF05F0070047EA0040DDE90023A3
:1002F00000F14070414653E0012002B0BDE8F081BA
:1003000038464146002200234AE000F089F94FF4C4
:10031000E02101EA00443268736847EA040000F112
:1003200080704146CDE9002300F040F810B34FF64D
:10033000017044EA00074FF60000CFF6FF7000EBB3
:100340000524083D083600BF092D17D332687368AD
:1003500038464146CDE9002300F028F80137A4F5DE
:100360000064083D083600284FF00000ECD102B0D0
:10037000BDE8F081002002B0BDE8F0810020CDE9A9
:100380000000684631462A46FFF7CCFEFF20C7F63C
:10039000FF5038402043DDE9002340F00070414623
:1003A00000F004F802B0BDE8F08100002DE9F04F44
:1003B00081B08A464FF08051914601EADA014FF050
:1003C000005202EA99024FF080470843009307EA7F
:1003D0005303104340F6001B40EA03056FF0060686
:1003E000C2F2000B00F020F900F03F0800F470703A
:1003F0000BEB081445EA803004F10C0740F0406133
:10040000384600F063FF410102D40136EAD31DE013
:1004100080F0044101F000402AF0004202444FEA1B
:1004200008134BF80320009B29F0004223F00043FF
:1004300002441844C4E90120384601F02DFA28B1DD
:1004400000F03AFF012001B0BDE8F08F00F02AFF74
:10045000002001B0BDE8F08FFE294FF0000398BFE7
:10046000FE2A01D9184670472DE9F04140F60058A0
:100470004FF0000C4FF0010EC2F20008002406E01D
:100480000CF1010CBCF1040F04F1200415D020FA8A
:100490000CF5ED07F4D09142F2D80D4604EBD507E8
:1004A00005F0070618F807300EFA06F60135334353
:1004B000954208F80730F1D9E2E70123BDE8F041A1
:1004C000184670472DE9F04140F680570546C2F2C4
:1004D00000070020387040F60050884642F26B76E4
:1004E000C2F200008021CEF2A516FFF734FE01F023
:1004F000B3FA396AB14205D17988814203D1F869EA
:10050000461C02E03E6278800126012E4FF000007A
:10051000FE610CD17870C7E90100F86040F6001068
:10052000C2F200004FF48061FFF715FE0FE040F6C5
:100530000011C2F2000100BF0A18D36810305C013C
:1005400044BF23F04063D360B0F5806FF4D100F076
:1005500055F8012E064609D1002E4FF000040CBFBD
:10056000002000F045F8C7E90440BC61F6B1284618
:100570000021FE22FFF770FF0F20EF21EF22FFF78F
:100580006BFF0420FE21FE22FFF766FFFFF770FEDF
:10059000FA6901464FF60070C0F200300023FFF701
:1005A00005FFB8F1000F18BF00F004F83046BDE8B1
:1005B000F081000080B540F68050C2F20000017862
:1005C00009B1012080BD01210170FFF751FE0146F4
:1005D0004FF60170C0F2003000220023FFF7E6FE64
:1005E000012080BD41F20400CEF200000068704797
:1005F00040F20400C2F20000006870474EF6FC5062
:10060000CEF20000016841F08071016041F200010A
:10061000CEF20001086840F0010201200A60704734
:1006200080B501F0E1F980BD80B540F68050C2F29E
:100630000000043001F0CEF980BD0000014690F8C2
:100640002100022813D10868D1E90FC3026822F003
:100650000E020260026822F001020260012000FA2C
:1006600003F2CCF8042081F82100002002E00420ED
:1006700088630120002281F82020704780B590F81F
:100680002110022923D10268116821F00E011160A6
:100690002F211368C4F202018A4240F20401C4F21D
:1006A000020123F00103136015DD3023C4F20203BD
:1006B0009A421CD04423C4F202039A421AD058230F
:1006C000C4F202039A421AD14FF480331FE004218E
:1006D0008163012080BD0823C4F202039A420CD03A
:1006E0001C23C4F202039A4209D110230FE04FF4F5
:1006F00080730CE04FF4805309E0012307E001F11F
:10070000680C4FF08073624508BF4FF480130B6094
:10071000416B4FF48072028401B18847002080BD94
:100720002DE9F04F82B00E68002E00F0EA8041F211
:100730000002C4F20102032340F2004C904208BFC1
:1007400002234FF6FF7EC4F2010C00930024012324
:10075000C1F2100E4FF0000B4FF0000947E040F6D9
:100760000043C4F20103009D984208BF012504F034
:100770000C030F279F402AEA070705FA03F33B43C0
:1007800042F826304E68F203DCF8002054BF22EA1B
:10079000080242EA0802CCF80020DCF80420B30387
:1007A00054BF22EA080242EA0802CCF80420F3020D
:1007B000DCF8082054BF22EA080242EA0802B30229
:1007C00040F20C43CCF80820C4F201031A6854BF6D
:1007D00022EA080242EA08021A6001230E680BF1BD
:1007E000010B36FA0BF204F1040400F08A8003FADC
:1007F0000BFA16EA0A08F1D04E68764510DC122E84
:1008000050D8DFE806F0330A41454F4F4F4F4F4F66
:100810004F4F4F4F4F4F4F484C00D1F80C9041E095
:100820004FF6FF72C1F2210296420FDC0022C1F2A4
:10083000110296421AD00022C1F21202964215D03D
:100840000022C1F22102964210D02BE00022C1F218
:10085000220296420AD00022C1F23102964205D00D
:100860000022C1F2320296421CD100BF8A6842B116
:10087000012A14BFC0F814A0C0F810A04FF0080956
:1008800010E04FF004090DE0CA6802F1080909E020
:100890004FF0000906E0CA6802F1040902E0CA68E4
:1008A00002F10C0922460546B8F5807F24BF203AA4
:1008B00004352E680F279740BE4309FA02F23243EF
:1008C0002A60CA79D2067FF589AF41F21803C4F2D3
:1008D00002031A684FEA9B0642F001021A601A6886
:1008E00040F6000302F001020192019AACF57E721B
:1008F00052F826A0C4F2010398427FF430AF0025DD
:1009000035E702B0BDE8F08F40F6B050C2F200000B
:100910000068704740F2080040F6B051C2F2000093
:10092000C2F2000100780A681044086070470000B5
:1009300080B542F20000C4F20200016841F01001EB
:100940000160032000F066F8002000F005F800F0D8
:100950002BF8002080BD0000B0B540F20802C2F2C2
:10096000000240F204011278C2F200014FF47A73DF
:100970000968B3FBF2F20446B1FBF2F1084600F05D
:10098000E7FA0F2C4FF001050CD858B94FF0FF30A3
:1009900021460022002500F02DF840F20C00C2F2A2
:1009A000000004602846B0BD82B041F21800C4F2D5
:1009B00002000168022241F001010160016801F0BA
:1009C000010101910199416841F080514160406805
:1009D00000F08050009000980420C4F201000168EB
:1009E00062F31A61016002B07047000080B500F048
:1009F00069FF80BD70B514460D46064600F072FFD3
:100A00002946224600F0AEFC0146304600F072FF57
:100A100070BD000080B500F07FFF80BD2DE9F04380
:100A200081B0002800F0898042F20008C4F2020878
:100A30000446D8F800000D4600F0070088420CD2AA
:100A4000D8F8000020F007002843C8F80000D8F8C4
:100A5000000000F00700A8426FD1206841F20409AD
:100A60008107C4F2020917D5410705D5D9F800104E
:100A700041F4E061C9F80010010705D5D9F800106C
:100A800041F46051C9F80010D9F80010A26821F0B3
:100A9000F0011143C9F80010C00745D1D8F8000093
:100AA00000F00700A8420CD9D8F8000020F0070099
:100AB0002843C8F80000D8F8000000F00700A8425A
:100AC0003BD12068410707D5D9F80010E26821F42E
:100AD000E0611143C9F80010000708D5D9F80000FB
:100AE000216920F4605040EAC100C9F8000000F01C
:100AF00079F8D9F8001041F60042C1F30311C0F6AD
:100B00000002515C40F2040220FA01F140F20C00B4
:100B1000C2F200000068C2F200021160FFF71CFF81
:100B2000002001B0BDE8F0836068022809D00128E8
:100B300029D159F8041C890307D4012001B0BDE86C
:100B4000F08359F8041C8901F7D5D9F8001021F079
:100B500003010843C9F80000FFF7D6FE064641F23C
:100B6000883700BFD9F80000616800F00C00B0EBD6
:100B7000810F93D0FFF7C8FE801BB842F2D9032043
:100B800001B0BDE8F08359F8041C8907D5D5DCE72E
:100B900040F20400C2F200000068704780B5FFF721
:100BA000F7FF41F20401C4F20201096841F6104264
:100BB000C1F30221C0F60002515CC84080BD0000B4
:100BC00080B5FFF7E5FF41F20401C4F202010968B4
:100BD00041F61042C1F3C221C0F60002515CC84088
:100BE00080BD000041F2040CC4F2020CDCF80030BD
:100BF00003F00C00082841F20020C0F27A0018BF70
:100C00007047C3F383420AA18A5CD90305D440F636
:100C10000010C0F23D0050437047DCF8001008A3FC
:100C2000C1F34041595C5043B0FBF1F0704700BF45
:100C300002030405060708090A0B0C0D0E0F10101D
:100C4000010200002DE9F04182B0002800F0C480CC
:100C50000446007841F20006C007C4F2020643D001
:100C6000706800F00C00042817D0706800F00C00C9
:100C7000082802D17068C0030FD465682DB1B5F59E
:100C8000A02F10D0B5F5803F11D0306820F480300F
:100C90003060306820F480200CE03068800323D579
:100CA000606808BB98E0306840F4802030603068AD
:100CB00040F480303060FFF727FE002D054610D04D
:100CC0003068800310D4FFF71FFE401B6428F7D95B
:100CD00004E100BFFFF718FE401B64284FF003003B
:100CE00077D830688003F5D42078800718D57068ED
:100CF00010F00C0F07D0706800F00C00082826D107
:100D00007068C00323D43068800702D520690128A9
:100D100062D13068616920F0F80040EAC1003060BB
:100D2000207800073DD5A06938B30020C4F24220E6
:100D30000121C0F88014FFF7E7FD0546706A8007BF
:100D40002DD4FFF7E1FD401B0228F7D9C6E020694A
:100D5000002840F20000C4F2422000F096800121F9
:100D60000160FFF7D1FD054630688007D1D4FFF759
:100D7000CBFD401B0228F7D9B0E00020C4F242208E
:100D80000021C0F88014FFF7BFFD0546706A800798
:100D900007D5FFF7B9FD401B0228F7D99EE000F008
:100DA000F9FA207840071BD4E5698DB1706800F02E
:100DB0000C00082847D1012D0ED07068216A00F47C
:100DC00080328A4208D1616A00F47010884203D1EF
:100DD000002002B0BDE8F081012002B0BDE8F08142
:100DE000F06910F0805808D1F06940F08050F0614F
:100DF000F06900F080500190019847F20007C4F2BA
:100E000000073868C00510D4386840F48070386036
:100E1000FFF77AFD054600BF3868C00505D4FFF727
:100E200073FD401B6428F7D958E0E5681DB1052D16
:100E30003CD0012D3ED0306A20F001003062306A93
:100E400020F0040039E00027C4F242270020386671
:100E5000FFF75AFD022D05460CD100BF3068800116
:100E600054D5FFF751FD401B02284FF00300F5D980
:100E7000AFE700BF30688001AAD5FFF745FD401BF2
:100E800002284FF00300F5D9A3E700210160FFF726
:100E90003BFD0546306880077FF542AFFFF734FD24
:100EA000401B02284FF00300F4D992E7306A40F06B
:100EB00004003062306A40F001003062FFF724FD28
:100EC000002D054641F2883714D000BF306A8007F4
:100ED00013D4FFF719FD401BB842F7D9032002B025
:100EE000BDE8F081FFF710FD401BB8424FF0030052
:100EF0003FF66FAF306A8007F4D4B8F1000F7FF48B
:100F000053AFF06920F08050F0614DE7206AB0F5F2
:100F1000803F05D17168A26821F4003111437160EE
:100F20007168626A21F474111043084370600120F3
:100F30003866FFF7E9FC0446306880013FF548AFAA
:100F4000FFF7E2FC001B02284FF00300F4D940E752
:100F500080B500F03BFB80BD70470000704700008B
:100F6000B0B582B0016805460868CA684C6900F0EF
:100F70002F03202B02F0200305D123B1284600F0D7
:100F80009DFB02B0B0BD5FEA007C1EBF04F0010E05
:100F900002F4907414EB0E0424D12B6B1040C206A3
:100FA00017D5012B15D100200190086801904868E1
:100FB00001900198486940061CD4A88DEA8DEB8DFC
:100FC000002B1CBF801A5FEA004240F09A8002B0FA
:100FD000B0BD010636D44006F9D5284600F062FBC4
:100FE00002B0B0BDC10718BF12F480712FD1410704
:100FF00033D439E0A86B0268526893B2002BE6D074
:10100000AC8DA342E3D2EA858269202A16D0CA6851
:1010100022F48072CA604A6922F001024A614A6978
:1010200022F040024A61202285F83E2000222A63F5
:10103000CA6822F01002CA60FFF700FBA88DE98D94
:10104000401A6FE0284600F0F5FB02B0B0BD296CF5
:1010500041F001012964410706D5BEF1000F03D01C
:10106000296C41F002012964810706D5BEF1000F09
:1010700003D0296C41F004012964BCF1000F06D5AE
:101080005EEA030103D0296C41F008012964296C50
:1010900000299CD01040800602D5284600F00EFBA7
:1010A00028684069296C00F0400001F008014018F0
:1010B00020D0284600F0E0FA28684169490614D596
:1010C000416921F040014161A86B70B141F2696151
:1010D000C0F600014163FFF7D1FA00283FF477AF73
:1010E000A86B416B884702B0B0BD2846FFF736FFBA
:1010F00002B0B0BD2846FFF731FF0020286402B0DF
:10110000B0BDCA6822F49072CA604A6922F0010236
:101110004A61202285F83E2000222A63CA6822F014
:101120001002CA6081B22846FFF716FF02B0B0BDB8
:10113000002804BF0120704710B5044690F83D0018
:1011400028B9002084F83C00204600F021F8242033
:1011500084F83D002068C16821F40051C160204638
:1011600000F006FB2068016921F4904101614169AA
:1011700021F02A014161C16841F40051C1600020A1
:101180002021206484F83D1084F83E1010BD00003A
:1011900070B586B040F60004C4F20104006804F59E
:1011A0004051002688420596CDE90366029601D09B
:1011B00006B070BD41F21800C4F20200016802AD31
:1011C00041F480410160016801F48041019101997D
:1011D000016841F0040101600068294600F0040044
:1011E000019001984FF400700290022003900320B8
:1011F00005902046FFF794FA4FF48060CDE902068F
:10120000204629460496FFF78BFA2520002100226C
:10121000FFF7F0FB2520FFF7E9FB06B070BD0000EB
:1012200010B590F83E30202B0BD100294FF001046F
:1012300018BF002A01D1204610BD90F83C30012B88
:1012400001D1022010BD0123002480F83C3004634A
:1012500000F0D6FA204610BD10B540F2404440F6EA
:101260008800C2F20004C2F2000021460122FFF70A
:10127000D7FF40F250402178C2F2000000F58160B3
:1012800000F016F910BD000070470000FEE70000F6
:1012900080B540F68050C2F20000103000F09AFB9A
:1012A00080BD000080B540F68050C2F200000C30D6
:1012B00000F090FB80BD000080B540F68050C2F287
:1012C0000000083000F086FB80BD000010B550E83B
:1012D000002F940103D3BFF32F8F002206E002F00A
:1012E00000420A4340E8002303B1F0E7104610BD76
:1012F00082B041F21800C4F20200016841F02001FE
:101300000160016801F0200101910199016841F03B
:1013100004010160006800F004000090009802B031
:101320007047000080B540F6880043F60001C2F225
:101330000000C4F2010100234FF00C0C4FF4E13225
:1013400080E80E00C0E90333C0E905C3C361FFF7BD
:10135000EFFE002818BFFEF76DFF80BDFEE700001E
:10136000FEE7000000F0070080F00703042B28BF11
:1013700004234FF0FF3C03380CFA03F338BF00207E
:10138000994381400CFA00F022EA000008437047BC
:101390007047000081B040F20400C2F20000006813
:1013A00044F6D351C1F26201A0FB0101480A00904A
:1013B00000BF0098411E00280091F9D101B070478C
:1013C0007047000080B582B0B8B10B78032B0DD800
:1013D0000FF20402DFE803F002131D2701780DF17C
:1013E00007028DF807100121012318E000EB8300AC
:1013F000436813B1481C511E984702B080BD49781C
:101400000278891A18BF012141700121817002B050
:1014100080BD41F63042C0F6000203210023FEF7F2
:10142000EDFE02B080BD49780278891A18BF01210B
:10143000417002B080BD000010B5036A04461BB1C4
:10144000D4E90312E06A984704F10C0000F0E8FACE
:1014500010BD00007047000010B5426A04460AB192
:10146000E06A904704F10C0000F0DAFAA06901305C
:10147000A06110BD2DE9F0470C9FDDE90A98DDE978
:10148000086A1D46044600F0DFFA04F10C00294604
:10149000324600F0D9FA0020C4E90600C4E908A9E0
:1014A000002FC4F828800CBFE462E762BDE8F08733
:1014B00010B50446C069022806D001281BD00028B8
:1014C00008BF012914D010BD182922D801201222EA
:1014D0008840C0F2001210421BD004F10C0000F052
:1014E000A3FA013004D120466FF00A01FFF7B4FFE0
:1014F0000120E06110BD182911D0042912D0012962
:1015000016D10020E06120466FF01401FFF7A4FF20
:1015100010BD20466FF01501FFF79EFF10BD0220A1
:10152000E06110BD0020E0612046FFF785FF10BD9F
:1015300004F10C0000F078FA013018BF10BD20460D
:101540006FF00A01FFF788FF10BD000043F60001AD
:10155000C4F201010A681206FCD548607047000019
:10156000B0B50446806A68B160680128B8BFB0BDF4
:10157000002500BF2068A16A405D8847606801358A
:101580008542F7DBB0BD000010B50421044600F031
:101590004BFA013006D02046FFF7E2FF204600F06C
:1015A00059FA10BD6FF0010010BD000010B50446DF
:1015B00000F036FA2046012100F036FA01300EBF65
:1015C0006FF00100204600F045FA10BDB0B50138BB
:1015D0000024B4EB106F1CBF0120B0BD4EF210050B
:1015E000CEF2000568604FF0FF300F2100F082F965
:1015F0000720AC6028602046B0BD000080B5FFF732
:1016000089F980BD70B590B006AC20462821FEF760
:10161000A2FD012006900A904FF4E01000254FF43F
:10162000803102260F9020460595CDE90355CDE97E
:101630000155CDE90715CDE90D61FFF703FB78B939
:101640000F20CDE901064FF48060CDE9040501A823
:1016500002210395FFF7E2F9002804BF10B070BD26
:10166000FEF7E8FD7047000080B5406A0021C185A3
:10167000C184FFF773FC80BD0168CA6822F49072D0
:10168000CA604A6922F001024A61026B012A03D151
:10169000CA6822F01002CA60202180F83E100021A2
:1016A0000163704780B50168CA6822F04002CA60D1
:1016B000202180F83D10FFF7E7FD80BD80B582B0A6
:1016C00090F83E1022291ED18268B2F5805F02D1C7
:1016D0000169002940D0816AB2F5805F07D00AB95C
:1016E000026922B10268526802F07F0201E00268DA
:1016F00052680A700121826A11448162C18D0139E8
:101700000A04C18501D002B080BD0168CA6822F018
:101710002002CA60CA6822F48072CA604A6922F054
:1017200001024A61202280F83E20026B012A1BD16F
:1017300000220263CB6823F01003CB600B68DB064A
:1017400005D501920A680192496801910199818D3C
:10175000FFF702FC02B080BD0168826A49686FF33E
:101760005F2111800221C6E7FFF776FD02B080BD40
:1017700010B504460068D4E902C22369016921F466
:10178000405111430161616943EA0C021143C2688F
:1017900041F20C639A431143C1604169A26921F48B
:1017A0004071114343F60002C4F2010290424161CC
:1017B00002D0FFF7F3F901E0FFF702FA626819219E
:1017C00048439100B0FBF1F048F21F51C5F2EB1114
:1017D000A0FB01235A096FF0630302FB03003223CD
:1017E00003EB0010A0FB0101F02303EA5113206872
:1017F00003EB0212C1F343111144816010BD0000DC
:1018000081628285C28500212222016480F83E2007
:10181000026880F83C10D06840F48070D060506955
:1018200040F001005061D06840F020010020D160FC
:101830007047000090F83D10212923D18168B1F54F
:10184000805F01D1016931B1016A02684B1C0362FA
:101850000978516007E0016A036831F8022B6FF3E1
:101860005F225A600162C18C01390A04C18418BF29
:1018700070470068C16821F08001C160C16841F013
:101880004001C1607047000080B540F68800C2F298
:101890000000FFF765FB80BD10B550E8003F9B01DD
:1018A00003D2BFF32F8F002204E040E8001404B1FC
:1018B000F3E70122104610BD80B500F0A3F880BD0B
:1018C000FEE70000002848BF704700F01F0101221A
:1018D00002FA01F14EF200124009CEF2000242F883
:1018E000201070474EF60C50CEF200000068C0F396
:1018F000022070474EF6145300F00F02CEF20003A0
:1019000009011A4400F16043B0F1FF3FC8BF03F57D
:1019100064421170704700004EF60C51CEF2000187
:101920000A684FF6FF031A4060F30A2242F0806013
:1019300040F0FD700860704781B02DE9F04181B042
:1019400016460D4604460793FFF730FE122707A8F8
:101950004FF00108C0F200170090012E15DA009830
:10196000011D0091056865B300F10801466800910A
:10197000012E0ADAF3E700BF204600F055F80130E7
:101980001CD0013E05F10105E9D029781829F3D8CA
:1019900008FA01F03842EFD02046182100F044F850
:1019A000013008D02978204600F03EF80130E8D117
:1019B0006FF0010008E06FF0010005E06FF001003A
:1019C00002E02046FFF7E0FD01B0BDE8F04101B0C4
:1019D0007047000050E8001F4A1C40E8002303B194
:1019E000F8E708467047000040F68050C2F2000059
:1019F0000130D0E84F1F4A1CC0E8432F03B1F8E77D
:101A0000C8B2704740F68051C2F2000101F11802DD
:101A100052E8001F42E8000303B1F9E708467047A7
:101A20000021416070470000D0E901239A42A4BF21
:101A30004FF0FF307047D0F800C0531C43600020C7
:101A40000CF80210704700000023C0E90013826008
:101A50007047000040687047B0B541F6184EC0F6B8
:101A6000000E4FF0180C4FF0FF3241F221034FF0FF
:101A7000FF3100BF9EF8000081EA00216FF00700EF
:101A80000DB20C4683EA41019542C8BF61000130A6
:101A9000F6D3BCF1010C0EF1010EEBD188B2B0BD52
:101AA00040F20002C2F2000291421CBF4FF0FF3030
:101AB000704780B500F052F880BD000000207047EC
:101AC00082B0FEF735FFFFF79DFDFFF711FCFFF732
:101AD00029FC0F200121FEF7F5FCFEF76BFD40F21B
:101AE000504441F24D5C4FF40070C2F2000440F2E9
:101AF000402140F24003C0F6000C0090C2F2000109
:101B0000C2F2000320464FF40072CDF804C0FEF785
:101B100043FB41F6A932C0F600022046052100F041
:101B20000DF840F6880040F24041C2F20000C2F2D7
:101B300000010122FFF774FBFEE70000042904D333
:101B4000002A1CBF00EB810042600020032988BFEF
:101B50000120002A18BF012210407047B0B540F69E
:101B6000AC55C2F200052968072984BF4FF0FF3049
:101B7000B0BD044640F6A4504A1CC2F200000A2C34
:101B80002A60445418BF082A0BD140F6A4514FF6DE
:101B90000060C2F20001C0F20200FEF77DFB0020EF
:101BA00028602046B0BD000080B502A000F016F805
:101BB00080BD00BF746573740000000002E008C8B7
:101BC000121F08C1002AFAD170477047002001E0B7
:101BD00001C1121F002AFBD17047000010B5044656
:101BE00001E0FFF75DFF14F8010B04490028F8D16C
:101BF000BDE810400A20FFF753BF0000000000209E
:101C000000000000000000000102030406070809AC
:101C10000000000001020304010001014000000077
:101C200000090020000D0020800D002000000000B1
:101C300000000000801C00080000002040000000A0
:101C4000BC1B0008C01C00084000002078110000E8
:101C5000CC1B000800000000000000000000000095
:101C60000000000000000000000000000000000074
:101C70000000000000000000000000000000000064
:101C8000000000000024F40001000000100000002B
:101C90000000000000000000000000000000000044
:101CA0000000000000000000000000000000000034
:101CB0000000000000000000000000000000000024
:04000005080000ED02
:00000001FF
